:0600000000F058EF04F0CF
:0F0600000048656C6C6F20576F726C64210000AE
:10061000FFFF036E0F0E83160F0E9516959495929D
:1006200095908C948C928C9045EC04F0300E03ECF9
:1006300004F00F0E026E9E0EFFFFE82EFDD7022E75
:10064000FBD7300E03EC04F00F0E026E9E0EFFFF80
:10065000E82EFDD7022EFBD7320E03EC04F0FFFF8D
:1006600024EC04F00009D8A4FAD7FFFF24EC04F02E
:100670000009D8A4FAD7035003EC04F0FFFF24ECE0
:1006800004F00009D8A4FAD7080E03EC04F0FFFF29
:1006900024EC04F00009D8A4FAD70F0E03EC04F000
:1006A000FFFF24EC04F00009D8A4FAD7010E03ECF4
:1006B00004F0FFFF24EC04F00009D8A4FAD7040EDC
:1006C00003EC04F0FFFF24EC04F00009D8A4FAD7EF
:1006D000800E9FEC03F01200FFFFFFFF000E836E01
:1006E000000E956E280E08EC03F0FFFF24EC04F0DA
:1006F0000009D8A4FAD7000E9FEC03F0060E03EC15
:1007000004F0FFFF24EC04F00009D8A4FAD70F0E80
:1007100003EC04F0FFFF24EC04F00009D8A4FAD79E
:10072000010E026E060E036EC1EC03F0FFFF24EC17
:1007300004F00009D8A4FAD7030001EF00F0FFFF8E
:10074000016E0F0E95160F0E831601508009F00BE7
:1007500083128C948C9250EC04F08C8050EC04F05A
:100760008C900F0E83160138F00BF00B831250ECB7
:1007700004F08C8050EC04F08C90F00E9512120076
:10078000FFFFFFFF11D0FFFF24EC04F00009D8A405
:10079000FAD702C0F6FF03C0F7FF0800FFFFF550CD
:1007A000E2EC03F0024A032AFFFF02C0F6FF03C097
:1007B000F7FF0800FFFFF5500009D8B41200FFFF53
:1007C000E2D7FFFFFFFF016E0F0E95160F0E831687
:1007D0000150F00B83128C828C9450EC04F08C80CE
:1007E00050EC04F08C900F0E83160138F00BF00BD8
:1007F000831250EC04F08C8050EC04F08C90F00EDE
:1008000095121200FFFFFFFF016E0F0E95160F0EDF
:1008100083160150F00B83128C948C9250EC04F0F0
:100820008C8050EC04F08C900F0E83160138F00B86
:10083000F00B831250EC04F08C8050EC04F08C90A0
:10084000F00E95121200FFFFFFFF8C848C9250EC8B
:1008500004F08C8050EC04F083AE0AD08C9050EC05
:1008600004F08C8050EC04F08C908C94010E0AD033
:10087000FFFF8C9050EC04F08C8050EC04F08C90D6
:100880008C94000EFFFF1200FFFFFFFF0F0E016EA2
:100890009E0EFFFFE82EFDD7012EFBD71200FFFFB3
:1008A000FFFF040EFFFFE82EFDD700D01200FFFF70
:1008B000000EF86E060EF76E00016DEF03F0FFFFFD
:020000040020DA
:08000000FFFFFFFFFFFFFFFF00
:020000040030CA
:0E000000FF220E0EFF0181FF0FC00FE00F4028
:00000001FF
